[{"blockhash": "000000000002f0715e6adc6a3cc337ecf2af1992ca9ba160608372b434efe1bd",
  "blocktime": 1527138991,
  "confirmations": 1,
  "hash": "57b598e18af33791d54ef32e8b91c4f3ab5f20cdef3ee9478c79011728a2b422",
  "hex": "020000000001010000000000000000000000000000000000000000000000000000000000000000ffffffff2d033a0c1404af4a065b726567696f6e312f50726f6a65637420425443506f6f6c2f020df278fa2d000000000000ffffffff02681baa040000000017a9141a30c2cb52f5bd4fcbd8697b37b636f9b73ebedf870000000000000000266a24aa21a9ed11ef1e6c707cdc182c37c7a1e852587b38a95cacd270dae5b47c8be2f9498d790120000000000000000000000000000000000000000000000000000000000000000000000000",
  "locktime": 0,
  "size": 211,
  "time": 1527138991,
  "txid": "3baaa6f6db735360fc2606407c8508170176c9eaf01636d13179e9c0aeab24a5",
  "version": 2,
  "vin": [{"coinbase": "033a0c1404af4a065b726567696f6e312f50726f6a65637420425443506f6f6c2f020df278fa2d000000000000",
            "sequence": 4294967295}],
  "vout": [{"n": 0,
             "scriptPubKey": {"addresses": ["2MudhyEqJ7RzedMPXrReNXDcJ9Hch1AUqdv"],
                               "asm": "OP_HASH160 1a30c2cb52f5bd4fcbd8697b37b636f9b73ebedf OP_EQUAL",
                               "hex": "a9141a30c2cb52f5bd4fcbd8697b37b636f9b73ebedf87",
                               "reqSigs": 1,
                               "type": "scripthash"},
             "value": 0.78257},
            {"n": 1,
             "scriptPubKey": {"asm": "OP_RETURN aa21a9ed11ef1e6c707cdc182c37c7a1e852587b38a95cacd270dae5b47c8be2f9498d79",
                               "hex": "6a24aa21a9ed11ef1e6c707cdc182c37c7a1e852587b38a95cacd270dae5b47c8be2f9498d79",
                               "type": "nulldata"},
             "value": 0.0}],
  "vsize": 184},
 {"blockhash": "000000000002f0715e6adc6a3cc337ecf2af1992ca9ba160608372b434efe1bd",
  "blocktime": 1527138991,
  "confirmations": 1,
  "hash": "75ec899970a26e242f99ccd760dfe745b4fd9edc3aea38de1977ec9221f27b8f",
  "hex": "0200000001c6945dc128c2d632712e88200289adee84ed948079e2595c46d419e9e54c07c3000000006a473044022015f2bc51488d4e0bc72bad519042775df6e57dcb08d5361e8548dcc8cd65985102206d42ba20d8068ca894a39c5e7f5e8f58dcc0eee52f374ca787115bd4a7b92b40012102a082666108e2a768011e9b05f93db9d154b21c15ef4be35267a505ec9e141a92feffffff02fd8493050000000017a914e72b90d56b693d897c5f25b4c0f83806df5886f487654248e7650000001976a914d276e7d0c734d54b4c8d1e99f67bf8fe7ff0dfa288ac380c1400",
  "locktime": 1313848,
  "size": 223,
  "time": 1527138991,
  "txid": "75ec899970a26e242f99ccd760dfe745b4fd9edc3aea38de1977ec9221f27b8f",
  "version": 2,
  "vin": [{"scriptSig": {"asm": "3044022015f2bc51488d4e0bc72bad519042775df6e57dcb08d5361e8548dcc8cd65985102206d42ba20d8068ca894a39c5e7f5e8f58dcc0eee52f374ca787115bd4a7b92b40[ALL] 02a082666108e2a768011e9b05f93db9d154b21c15ef4be35267a505ec9e141a92",
                           "hex": "473044022015f2bc51488d4e0bc72bad519042775df6e57dcb08d5361e8548dcc8cd65985102206d42ba20d8068ca894a39c5e7f5e8f58dcc0eee52f374ca787115bd4a7b92b40012102a082666108e2a768011e9b05f93db9d154b21c15ef4be35267a505ec9e141a92"},
            "sequence": 4294967294,
            "txid": "c3074ce5e919d4465c59e2798094ed84eead890220882e7132d6c228c15d94c6",
            "vout": 0}],
  "vout": [{"n": 0,
             "scriptPubKey": {"addresses": ["2NEKYGbfyYj98u3Es3uSu5j2TQkN4P8qw3r"],
                               "asm": "OP_HASH160 e72b90d56b693d897c5f25b4c0f83806df5886f4 OP_EQUAL",
                               "hex": "a914e72b90d56b693d897c5f25b4c0f83806df5886f487",
                               "reqSigs": 1,
                               "type": "scripthash"},
             "value": 0.93553917},
            {"n": 1,
             "scriptPubKey": {"addresses": ["mzhne3EuUV5e3AoGCNB85QXd9qoiWK3Pst"],
                               "asm": "OP_DUP OP_HASH160 d276e7d0c734d54b4c8d1e99f67bf8fe7ff0dfa2 OP_EQUALVERIFY OP_CHECKSIG",
                               "hex": "76a914d276e7d0c734d54b4c8d1e99f67bf8fe7ff0dfa288ac",
                               "reqSigs": 1,
                               "type": "pubkeyhash"},
             "value": 4376.71969381}],
  "vsize": 223},
 {"blockhash": "000000000002f0715e6adc6a3cc337ecf2af1992ca9ba160608372b434efe1bd",
  "blocktime": 1527138991,
  "confirmations": 1,
  "hash": "b85cc6610650f2de60271079caca82d294365627792cb48fd1a533f98994f4af",
  "hex": "010000000283e70bf82cb6a91b9f15de1669dafdb9850601f44836c54d4dc8954e02f6c71a010000006a4730440220340e67aef770d40689635736c9b85683fc1e0e11cd64cbf79498f277774e636d022033550d1e2d71c60168aca59561b485fe6eaa4811dbca4fe6ae9f3d32f98023dc0121032d69da7e61f1cec076d1ace58d96d3ef4a2f3ae248eadbc99846d4aebb653a5dffffffffe44b25db455ad225441c599d739277fa18969a5144611d4e20e19808a3bac2b8010000006b483045022100850cde2e84cf42069004a9d41a32a4575278dae0c3a71fbaee7bb4650cdabcd302201184f89a5b5bb7b5cb943b597aadfe32f54d012b5faddca26247ab98a5abe5100121032d69da7e61f1cec076d1ace58d96d3ef4a2f3ae248eadbc99846d4aebb653a5dffffffff02041a02000000000017a91474fe1dc9bfcd69a2e9182c639fe9825febc262d18718260000000000001976a9140bb829e0e3e5e4e0189f69b3a41c0bd617f96cd588ac00000000",
  "locktime": 0,
  "size": 371,
  "time": 1527138991,
  "txid": "b85cc6610650f2de60271079caca82d294365627792cb48fd1a533f98994f4af",
  "version": 1,
  "vin": [{"scriptSig": {"asm": "30440220340e67aef770d40689635736c9b85683fc1e0e11cd64cbf79498f277774e636d022033550d1e2d71c60168aca59561b485fe6eaa4811dbca4fe6ae9f3d32f98023dc[ALL] 032d69da7e61f1cec076d1ace58d96d3ef4a2f3ae248eadbc99846d4aebb653a5d",
                           "hex": "4730440220340e67aef770d40689635736c9b85683fc1e0e11cd64cbf79498f277774e636d022033550d1e2d71c60168aca59561b485fe6eaa4811dbca4fe6ae9f3d32f98023dc0121032d69da7e61f1cec076d1ace58d96d3ef4a2f3ae248eadbc99846d4aebb653a5d"},
            "sequence": 4294967295,
            "txid": "1ac7f6024e95c84d4dc53648f4010685b9fdda6916de159f1ba9b62cf80be783",
            "vout": 1},
           {"scriptSig": {"asm": "3045022100850cde2e84cf42069004a9d41a32a4575278dae0c3a71fbaee7bb4650cdabcd302201184f89a5b5bb7b5cb943b597aadfe32f54d012b5faddca26247ab98a5abe510[ALL] 032d69da7e61f1cec076d1ace58d96d3ef4a2f3ae248eadbc99846d4aebb653a5d",
                           "hex": "483045022100850cde2e84cf42069004a9d41a32a4575278dae0c3a71fbaee7bb4650cdabcd302201184f89a5b5bb7b5cb943b597aadfe32f54d012b5faddca26247ab98a5abe5100121032d69da7e61f1cec076d1ace58d96d3ef4a2f3ae248eadbc99846d4aebb653a5d"},
            "sequence": 4294967295,
            "txid": "b8c2baa30898e1204e1d6144519a9618fa7792739d591c4425d25a45db254be4",
            "vout": 1}],
  "vout": [{"n": 0,
             "scriptPubKey": {"addresses": ["2N3upnrHJEqcXUAnS2H6L6zDnJBqmTqhHhG"],
                               "asm": "OP_HASH160 74fe1dc9bfcd69a2e9182c639fe9825febc262d1 OP_EQUAL",
                               "hex": "a91474fe1dc9bfcd69a2e9182c639fe9825febc262d187",
                               "reqSigs": 1,
                               "type": "scripthash"},
             "value": 0.00137732},
            {"n": 1,
             "scriptPubKey": {"addresses": ["mgavM5H5uJfsfrKxYDTd9PvBNLuoiaXjt2"],
                               "asm": "OP_DUP OP_HASH160 0bb829e0e3e5e4e0189f69b3a41c0bd617f96cd5 OP_EQUALVERIFY OP_CHECKSIG",
                               "hex": "76a9140bb829e0e3e5e4e0189f69b3a41c0bd617f96cd588ac",
                               "reqSigs": 1,
                               "type": "pubkeyhash"},
             "value": 9.752e-05}],
  "vsize": 371}]

  {
  "txid": "5268696fb3ca2e053b191892cfbd88991818f84d1f1bcdc0ef491092c386bcb9",  "hash": "893a29290a79af3a5efce9c7e358ef944044c621c54aa75d2ee23a317edeb915",
  "version": 1,
  "size": 249,
  "vsize": 168,
  "locktime": 0,
  "vin": [
    {
      "txid": "b85cc6610650f2de60271079caca82d294365627792cb48fd1a533f98994f4af",
      "vout": 0,
      "scriptSig": {
        "asm": "0014ea450494143f7a9c35a81a71b95b14fb4c3bde99",
        "hex": "160014ea450494143f7a9c35a81a71b95b14fb4c3bde99"
      },
      "txinwitness": [
        "304402204a8e13e8155db0a0b51149fe9b51c34240eaa0c7c6da4b8118c4d0396eb7825e0220172546d44b8ae76a2556e5d2857ee900f8acc206e6f7d54b2f336ab89e4ba34701",
        "026d66411a7e5eb4f001ee10967bd6075c1ddee2a3d6d98c45dedb82f84fd0a2de"
      ],
      "sequence": 4294967280
    }
  ],
  "vout": [
    {
      "value": 0.00015800,
      "n": 0,
      "scriptPubKey": {
        "asm": "OP_HASH160 0d5461b701c954767a149100ed90338b6e78916f OP_EQUAL",
        "hex": "a9140d5461b701c954767a149100ed90338b6e78916f87",
        "reqSigs": 1,
        "type": "scripthash",
        "addresses": [
          "2MtThrimZNG6hnGGS2CuEwCy7vQ8nwGtJkY"
        ]
      }
    },
    {
      "value": 0.00117732,
      "n": 1,
      "scriptPubKey": {
        "asm": "OP_DUP OP_HASH160 0bb829e0e3e5e4e0189f69b3a41c0bd617f96cd5 OP_EQUALVERIFY OP_CHECKSIG",
        "hex": "76a9140bb829e0e3e5e4e0189f69b3a41c0bd617f96cd588ac",
        "reqSigs": 1,
        "type": "pubkeyhash",
        "addresses": [
          "mgavM5H5uJfsfrKxYDTd9PvBNLuoiaXjt2"
        ]
      }
    }
  ],
  "hex": "01000000000101aff49489f933a5d18fb42c7927563694d282caca79102760def2500661c65cb80000000017160014ea450494143f7a9c35a81a71b95b14fb4c3bde99f0ffffff02b83d00000000000017a9140d5461b701c954767a149100ed90338b6e78916f87e4cb0100000000001976a9140bb829e0e3e5e4e0189f69b3a41c0bd617f96cd588ac0247304402204a8e13e8155db0a0b51149fe9b51c34240eaa0c7c6da4b8118c4d0396eb7825e0220172546d44b8ae76a2556e5d2857ee900f8acc206e6f7d54b2f336ab89e4ba3470121026d66411a7e5eb4f001ee10967bd6075c1ddee2a3d6d98c45dedb82f84fd0a2de00000000",
  "blockhash": "00000000000044e036c2073c4d98b0d049eb638904c9a0d4008d9d6adefda89f",
  "confirmations": 0
}